{
	"data": {
		"bytecode": {
			"linkReferences": {},
			"object": "608060405234801561001057600080fd5b5061036c806100206000396000f3fe608060405234801561001057600080fd5b50600436106100575760003560e01c8063209877671461005c5780632b813bc0146100785780634e70b1dc1461008257806375f7286c146100a0578063b8bd717f146100bc575b600080fd5b6100766004803603810190610071919061020a565b6100d8565b005b61008061011f565b005b61008a610133565b6040516100979190610246565b60405180910390f35b6100ba60048036038101906100b5919061020a565b610139565b005b6100d660048036038101906100d1919061020a565b610189565b005b600a81101561011c576040517f08c379a0000000000000000000000000000000000000000000000000000000008152600401610113906102be565b60405180910390fd5b50565b6000805414610131576101306102de565b5b565b60005481565b6000479050818110156101855780826040517fcf47918100000000000000000000000000000000000000000000000000000000815260040161017c92919061030d565b60405180910390fd5b5050565b600a81116101cc576040517f08c379a00000000000000000000000000000000000000000000000000000000081526004016101c3906102be565b60405180910390fd5b50565b600080fd5b6000819050919050565b6101e7816101d4565b81146101f257600080fd5b50565b600081359050610204816101de565b92915050565b6000602082840312156102205761021f6101cf565b5b600061022e848285016101f5565b91505092915050565b610240816101d4565b82525050565b600060208201905061025b6000830184610237565b92915050565b600082825260208201905092915050565b7f696e707574206d7573742062652067726561746572207468616e203130000000600082015250565b60006102a8601d83610261565b91506102b382610272565b602082019050919050565b600060208201905081810360008301526102d78161029b565b9050919050565b7f4e487b7100000000000000000000000000000000000000000000000000000000600052600160045260246000fd5b60006040820190506103226000830185610237565b61032f6020830184610237565b939250505056fea264697066735822122063ca902550ac2cec7d444867c46934fc263bf5d56b10092d15eda0e2e3c2930164736f6c634300080d0033",
			"opcodes": "PUSH1 0x80 PUSH1 0x40 MSTORE CALLVALUE DUP1 ISZERO PUSH2 0x10 JUMPI PUSH1 0x0 DUP1 REVERT JUMPDEST POP PUSH2 0x36C DUP1 PUSH2 0x20 PUSH1 0x0 CODECOPY PUSH1 0x0 RETURN INVALID PUSH1 0x80 PUSH1 0x40 MSTORE CALLVALUE DUP1 ISZERO PUSH2 0x10 JUMPI PUSH1 0x0 DUP1 REVERT JUMPDEST POP PUSH1 0x4 CALLDATASIZE LT PUSH2 0x57 JUMPI PUSH1 0x0 CALLDATALOAD PUSH1 0xE0 SHR DUP1 PUSH4 0x20987767 EQ PUSH2 0x5C JUMPI DUP1 PUSH4 0x2B813BC0 EQ PUSH2 0x78 JUMPI DUP1 PUSH4 0x4E70B1DC EQ PUSH2 0x82 JUMPI DUP1 PUSH4 0x75F7286C EQ PUSH2 0xA0 JUMPI DUP1 PUSH4 0xB8BD717F EQ PUSH2 0xBC JUMPI JUMPDEST PUSH1 0x0 DUP1 REVERT JUMPDEST PUSH2 0x76 PUSH1 0x4 DUP1 CALLDATASIZE SUB DUP2 ADD SWAP1 PUSH2 0x71 SWAP2 SWAP1 PUSH2 0x20A JUMP JUMPDEST PUSH2 0xD8 JUMP JUMPDEST STOP JUMPDEST PUSH2 0x80 PUSH2 0x11F JUMP JUMPDEST STOP JUMPDEST PUSH2 0x8A PUSH2 0x133 JUMP JUMPDEST PUSH1 0x40 MLOAD PUSH2 0x97 SWAP2 SWAP1 PUSH2 0x246 JUMP JUMPDEST PUSH1 0x40 MLOAD DUP1 SWAP2 SUB SWAP1 RETURN JUMPDEST PUSH2 0xBA PUSH1 0x4 DUP1 CALLDATASIZE SUB DUP2 ADD SWAP1 PUSH2 0xB5 SWAP2 SWAP1 PUSH2 0x20A JUMP JUMPDEST PUSH2 0x139 JUMP JUMPDEST STOP JUMPDEST PUSH2 0xD6 PUSH1 0x4 DUP1 CALLDATASIZE SUB DUP2 ADD SWAP1 PUSH2 0xD1 SWAP2 SWAP1 PUSH2 0x20A JUMP JUMPDEST PUSH2 0x189 JUMP JUMPDEST STOP JUMPDEST PUSH1 0xA DUP2 LT ISZERO PUSH2 0x11C JUMPI PUSH1 0x40 MLOAD PUSH32 0x8C379A000000000000000000000000000000000000000000000000000000000 DUP2 MSTORE PUSH1 0x4 ADD PUSH2 0x113 SWAP1 PUSH2 0x2BE JUMP JUMPDEST PUSH1 0x40 MLOAD DUP1 SWAP2 SUB SWAP1 REVERT JUMPDEST POP JUMP JUMPDEST PUSH1 0x0 DUP1 SLOAD EQ PUSH2 0x131 JUMPI PUSH2 0x130 PUSH2 0x2DE JUMP JUMPDEST JUMPDEST JUMP JUMPDEST PUSH1 0x0 SLOAD DUP2 JUMP JUMPDEST PUSH1 0x0 SELFBALANCE SWAP1 POP DUP2 DUP2 LT ISZERO PUSH2 0x185 JUMPI DUP1 DUP3 PUSH1 0x40 MLOAD PUSH32 0xCF47918100000000000000000000000000000000000000000000000000000000 DUP2 MSTORE PUSH1 0x4 ADD PUSH2 0x17C SWAP3 SWAP2 SWAP1 PUSH2 0x30D JUMP JUMPDEST PUSH1 0x40 MLOAD DUP1 SWAP2 SUB SWAP1 REVERT JUMPDEST POP POP JUMP JUMPDEST PUSH1 0xA DUP2 GT PUSH2 0x1CC JUMPI PUSH1 0x40 MLOAD PUSH32 0x8C379A000000000000000000000000000000000000000000000000000000000 DUP2 MSTORE PUSH1 0x4 ADD PUSH2 0x1C3 SWAP1 PUSH2 0x2BE JUMP JUMPDEST PUSH1 0x40 MLOAD DUP1 SWAP2 SUB SWAP1 REVERT JUMPDEST POP JUMP JUMPDEST PUSH1 0x0 DUP1 REVERT JUMPDEST PUSH1 0x0 DUP2 SWAP1 POP SWAP2 SWAP1 POP JUMP JUMPDEST PUSH2 0x1E7 DUP2 PUSH2 0x1D4 JUMP JUMPDEST DUP2 EQ PUSH2 0x1F2 JUMPI PUSH1 0x0 DUP1 REVERT JUMPDEST POP JUMP JUMPDEST PUSH1 0x0 DUP2 CALLDATALOAD SWAP1 POP PUSH2 0x204 DUP2 PUSH2 0x1DE JUMP JUMPDEST SWAP3 SWAP2 POP POP JUMP JUMPDEST PUSH1 0x0 PUSH1 0x20 DUP3 DUP5 SUB SLT ISZERO PUSH2 0x220 JUMPI PUSH2 0x21F PUSH2 0x1CF JUMP JUMPDEST JUMPDEST PUSH1 0x0 PUSH2 0x22E DUP5 DUP3 DUP6 ADD PUSH2 0x1F5 JUMP JUMPDEST SWAP2 POP POP SWAP3 SWAP2 POP POP JUMP JUMPDEST PUSH2 0x240 DUP2 PUSH2 0x1D4 JUMP JUMPDEST DUP3 MSTORE POP POP JUMP JUMPDEST PUSH1 0x0 PUSH1 0x20 DUP3 ADD SWAP1 POP PUSH2 0x25B PUSH1 0x0 DUP4 ADD DUP5 PUSH2 0x237 JUMP JUMPDEST SWAP3 SWAP2 POP POP JUMP JUMPDEST PUSH1 0x0 DUP3 DUP3 MSTORE PUSH1 0x20 DUP3 ADD SWAP1 POP SWAP3 SWAP2 POP POP JUMP JUMPDEST PUSH32 0x696E707574206D7573742062652067726561746572207468616E203130000000 PUSH1 0x0 DUP3 ADD MSTORE POP JUMP JUMPDEST PUSH1 0x0 PUSH2 0x2A8 PUSH1 0x1D DUP4 PUSH2 0x261 JUMP JUMPDEST SWAP2 POP PUSH2 0x2B3 DUP3 PUSH2 0x272 JUMP JUMPDEST PUSH1 0x20 DUP3 ADD SWAP1 POP SWAP2 SWAP1 POP JUMP JUMPDEST PUSH1 0x0 PUSH1 0x20 DUP3 ADD SWAP1 POP DUP2 DUP2 SUB PUSH1 0x0 DUP4 ADD MSTORE PUSH2 0x2D7 DUP2 PUSH2 0x29B JUMP JUMPDEST SWAP1 POP SWAP2 SWAP1 POP JUMP JUMPDEST PUSH32 0x4E487B7100000000000000000000000000000000000000000000000000000000 PUSH1 0x0 MSTORE PUSH1 0x1 PUSH1 0x4 MSTORE PUSH1 0x24 PUSH1 0x0 REVERT JUMPDEST PUSH1 0x0 PUSH1 0x40 DUP3 ADD SWAP1 POP PUSH2 0x322 PUSH1 0x0 DUP4 ADD DUP6 PUSH2 0x237 JUMP JUMPDEST PUSH2 0x32F PUSH1 0x20 DUP4 ADD DUP5 PUSH2 0x237 JUMP JUMPDEST SWAP4 SWAP3 POP POP POP JUMP INVALID LOG2 PUSH5 0x6970667358 0x22 SLT KECCAK256 PUSH4 0xCA902550 0xAC 0x2C 0xEC PUSH30 0x444867C46934FC263BF5D56B10092D15EDA0E2E3C2930164736F6C634300 ADDMOD 0xD STOP CALLER "
		},
		"gasEstimates": {
			"creation": {
				"codeDepositCost": "175200",
				"executionCost": "220",
				"totalCost": "175420"
			},
			"external": {
				"num()": "2451",
				"testAssert()": "2296",
				"testCustomError(uint256)": "infinite",
				"testRequire(uint256)": "782",
				"testRevert(uint256)": "697"
			}
		},
		"methodIdentifiers": {
			"num()": "4e70b1dc",
			"testAssert()": "2b813bc0",
			"testCustomError(uint256)": "75f7286c",
			"testRequire(uint256)": "b8bd717f",
			"testRevert(uint256)": "20987767"
		}
	},
	"abi": [
		{
			"inputs": [
				{
					"internalType": "uint256",
					"name": "balance",
					"type": "uint256"
				},
				{
					"internalType": "uint256",
					"name": "withdrawAmount",
					"type": "uint256"
				}
			],
			"name": "InsufficientBalance",
			"type": "error"
		},
		{
			"inputs": [],
			"name": "num",
			"outputs": [
				{
					"internalType": "uint256",
					"name": "",
					"type": "uint256"
				}
			],
			"stateMutability": "view",
			"type": "function"
		},
		{
			"inputs": [],
			"name": "testAssert",
			"outputs": [],
			"stateMutability": "view",
			"type": "function"
		},
		{
			"inputs": [
				{
					"internalType": "uint256",
					"name": "_withdrawAmount",
					"type": "uint256"
				}
			],
			"name": "testCustomError",
			"outputs": [],
			"stateMutability": "view",
			"type": "function"
		},
		{
			"inputs": [
				{
					"internalType": "uint256",
					"name": "_i",
					"type": "uint256"
				}
			],
			"name": "testRequire",
			"outputs": [],
			"stateMutability": "pure",
			"type": "function"
		},
		{
			"inputs": [
				{
					"internalType": "uint256",
					"name": "_i",
					"type": "uint256"
				}
			],
			"name": "testRevert",
			"outputs": [],
			"stateMutability": "pure",
			"type": "function"
		}
	]
}